:020000040800F2
:1000000000000120291A0008191200081D1200081A
:100010002112000825120008291200080000000023
:100020000000000000000000000000002D12000889
:1000300031120008000000003512000839120008D3
:10004000711A0008711A0008711A0008A51000083A
:10005000711A0008711A0008711A0008711A000854
:10006000711A0008711A0008711A0008711A000844
:10007000711A0008711A0008711A0008711A000834
:10008000711A0008711A0008711A0008711A000824
:10009000711A0008711A0008711A0008711A000814
:1000A000711A0008711A0008711A0008711A000804
:1000B000890C0008711A0008711A0008711A0008EA
:1000C000711A0008711A0008711A0008711A0008E4
:1000D000711A00081D0F0008711A0008711A000833
:1000E000711A0008711A0008711A0008711A0008C4
:1000F000711A0008711A0008711A0008711A0008B4
:10010000711A0008711A0008711A0008711A0008A3
:10011000711A0008711A0008711A0008711A000893
:10012000711A0008711A0008711A0008711A000883
:1001300000000000000000000000000000000000BF
:1001400000000000000000000000000000000000AF
:10015000000000000000000000000000000000009F
:10016000000000000000000000000000000000008F
:10017000000000000000000000000000000000007F
:10018000000000000000000000000000000000006F
:10019000000000000000000000000000000000005F
:1001A000000000000000000000000000000000004F
:1001B000000000000000000000000000000000003F
:1001C000000000000000000000000000000000002F
:1001D000000000000000000000000000000000001F
:0401E0005FF8E0F1F3
:1001E80010B5054C237833B9044B13B10448AFF369
:1001F80000800123237010BDE801002000000000EA
:10020800E4010008084B10B51BB108490848AFF3D2
:1002180000800848036803B910BD074B002BFBD0CA
:10022800BDE81040184700BF00000000EC010020A6
:10023800E4010008E801002000000000034613F86C
:10024800012B002AFBD1181A0138704781F00041B0
:1002580002E000BF83F0004330B54FEA41044FEAA3
:10026800430594EA050F08BF90EA020F1FBF54EA3E
:10027800000C55EA020C7FEA645C7FEA655C00F0DA
:10028800E2804FEA5454D4EB5555B8BF6D420CDDAB
:100298002C4480EA020281EA030382EA000083EA2E
:1002A800010180EA020281EA0303362D88BF30BDCE
:1002B80011F0004F4FEA01314FF4801C4CEA113124
:1002C80002D0404261EB410113F0004F4FEA033383
:1002D8004CEA133302D0524263EB430394EA050F0E
:1002E80000F0A780A4F10104D5F1200E0DDB02FA7D
:1002F8000EFC22FA05F2801841F1000103FA0EF211
:10030800801843FA05F359410EE0A5F120050EF1D6
:10031800200E012A03FA0EFC28BF4CF0020C43FA07
:1003280005F3C01851EBE37101F0004507D54FF014
:10033800000EDCF1000C7EEB00006EEB0101B1F564
:10034800801F1BD3B1F5001F0CD349085FEA3000AA
:100358004FEA3C0C04F101044FEA445212F5800FB5
:1003680080F09A80BCF1004F08BF5FEA500C50F152
:10037800000041EB045141EA050130BD5FEA4C0C35
:10038800404141EB010111F4801FA4F10104E9D1BE
:1003980091F0000F04BF01460020B1FA81F308BFB5
:1003A8002033A3F10B03B3F120020CDA0C3208DD81
:1003B80002F1140CC2F10C0201FA0CF021FA02F15C
:1003C8000CE002F11402D8BFC2F1200C01FA02F1CC
:1003D80020FA0CFCDCBF41EA0C019040E41AA2BFF1
:1003E80001EB0451294330BD6FEA04041F3C1CDAB9
:1003F8000C340EDC04F11404C4F1200220FA04F0D9
:1004080001FA02F340EA030021FA04F345EA030182
:1004180030BDC4F10C04C4F1200220FA02F001FA44
:1004280004F340EA0300294630BD21FA04F02946C6
:1004380030BD94F0000F83F4801306BF81F480115F
:100448000134013D4EE77FEA645C18BF7FEA655CD2
:1004580029D094EA050F08BF90EA020F05D054EAA4
:10046800000C04BF1946104630BD91EA030F1EBFA9
:100478000021002030BD5FEA545C05D140004941AD
:1004880028BF41F0004130BD14F580043CBF01F5A0
:10049800801130BD01F0004545F0FE4141F4700186
:1004A8004FF0000030BD7FEA645C1ABF1946104661
:1004B8007FEA655C1CBF0B46024650EA013406BF62
:1004C80052EA033591EA030F41F4002130BD00BF21
:1004D80090F0000F04BF0021704730B54FF48064DE
:1004E80004F132044FF000054FF0000150E700BF5F
:1004F80090F0000F04BF0021704730B54FF48064BE
:1005080004F1320410F0004548BF40424FF00001AA
:100518003EE700BF42004FEAE2014FEA31014FEAED
:1005280002701FBF12F07F4393F07F4F81F060513C
:10053800704792F0000F14BF93F07F4F704730B5AB
:100548004FF4607401F0004521F0004120E700BF3E
:1005580050EA010208BF704730B54FF000050AE0C5
:1005680050EA010208BF704730B511F0004502D5C6
:10057800404261EB41014FF4806404F132045FEAC8
:10058800915C3FF4DCAE4FF003025FEADC0C18BF6D
:1005980003325FEADC0C18BF033202EBDC02C2F163
:1005A800200300FA03FC20FA02F001FA03FE40EAF5
:1005B8000E0021FA02F11444C1E600BF70B54FF0F5
:1005C800FF0C4CF4E06C1CEA11541DBF1CEA1355D7
:1005D80094EA0C0F95EA0C0F00F0DEF82C4481EA3F
:1005E800030621EA4C5123EA4C5350EA013518BF5F
:1005F80052EA033541F4801143F4801338D0A0FB4C
:1006080002CE4FF00005E1FB02E506F00042E0FBF8
:1006180003E54FF00006E1FB03569CF0000F18BFFE
:100628004EF0010EA4F1FF04B6F5007F64F54074A6
:1006380004D25FEA4E0E6D4146EB060642EAC62139
:1006480041EA55514FEAC52040EA5E504FEACE2EA6
:10065800B4F1FD0C88BFBCF5E06F1ED8BEF1004FA9
:1006680008BF5FEA500E50F1000041EB045170BD25
:1006780006F0004646EA010140EA020081EA030169
:10068800B4EB5C04C2BFD4EB0C0541EA045170BD65
:1006980041F480114FF0000E013C00F3AB8014F1DF
:1006A800360FDEBF002001F0004170BDC4F1000428
:1006B800203C35DA0C341BDC04F11404C4F12005A9
:1006C80000FA05F320FA04F001FA05F240EA020004
:1006D80001F0004221F0004110EBD37021FA04F63A
:1006E80042EB06015EEA430E08BF20EAD37070BDF4
:1006F800C4F10C04C4F1200500FA04F320FA05F053
:1007080001FA04F240EA020001F0004110EBD37054
:1007180041F100015EEA430E08BF20EAD37070BDC4
:10072800C4F1200500FA05F24EEA020E20FA04F39D
:1007380001FA05F243EA020321FA04F001F000414C
:1007480021FA04F220EA020000EBD3705EEA430EBD
:1007580008BF20EAD37070BD94F0000F0FD101F0EC
:100768000046400041EB010111F4801F08BF013C25
:10077800F7D041EA060195F0000F18BF704703F063
:100788000046520043EB030313F4801F08BF013DEA
:10079800F7D043EA0603704794EA0C0F0CEA1355A6
:1007A80018BF95EA0C0F0CD050EA410618BF52EA60
:1007B8004306D1D181EA030101F000414FF0000066
:1007C80070BD50EA410606BF1046194652EA430674
:1007D80019D094EA0C0F02D150EA013613D195EAE8
:1007E8000C0F05D152EA03361CBF104619460AD130
:1007F80081EA030101F0004141F0FE4141F470013A
:100808004FF0000070BD41F0FE4141F4780170BD29
:1008180070B54FF0FF0C4CF4E06C1CEA11541DBF8E
:100828001CEA135594EA0C0F95EA0C0F00F0A7F890
:10083800A4EB050481EA030E52EA03354FEA0131BD
:1008480000F088804FEA03334FF0805545EA1313D0
:1008580043EA12634FEA022245EA111545EA106598
:100868004FEA00260EF000419D4208BF964244F12F
:10087800FD0404F5407402D25B084FEA3202B61A4E
:1008880065EB03055B084FEA32024FF480104FF422
:10089800002CB6EB020E75EB030E22BFB61A754696
:1008A80040EA0C005B084FEA3202B6EB020E75EB29
:1008B800030E22BFB61A754640EA5C005B084FEA91
:1008C8003202B6EB020E75EB030E22BFB61A75465E
:1008D80040EA9C005B084FEA3202B6EB020E75EB69
:1008E800030E22BFB61A754640EADC0055EA060E2A
:1008F80018D04FEA051545EA16754FEA06164FEA6D
:10090800C30343EA52734FEAC2025FEA1C1CC0D118
:1009180011F4801F0BD141EA00014FF000004FF0A5
:10092800004CB6E711F4801F04BF01430020B4F166
:10093800FD0C88BFBCF5E06F3FF6AFAEB5EB030C1E
:1009480004BFB6EB020C5FEA500C50F1000041EB1B
:10095800045170BD0EF0004E4EEA113114EB5C04E8
:10096800C2BFD4EB0C0541EA045170BD41F48011BB
:100978004FF0000E013C90E645EA060E8DE60CEAC3
:10098800135594EA0C0F08BF95EA0C0F3FF43BAFE0
:1009980094EA0C0F0AD150EA01347FF434AF95EA97
:1009A8000C0F7FF425AF104619462CE795EA0C0F7B
:1009B80006D152EA03353FF4FDAE1046194622E748
:1009C80050EA410618BF52EA43067FF4C5AE50EA22
:1009D80041047FF40DAF52EA43057FF4EBAE12E712
:1009E8004FF0FF3C06E000BF4FF0010C02E000BFF3
:1009F8004FF0010C4DF804CD4FEA410C7FEA6C5CD6
:100A08004FEA430C18BF7FEA6C5C1BD001B050EA78
:100A1800410C0CBF52EA430C91EA030F02BF90EA63
:100A2800020F0020704710F1000F91EA030F58BF22
:100A3800994208BF90422CBFD8176FEAE37040F084
:100A4800010070474FEA410C7FEA6C5C02D150EA22
:100A5800013C07D14FEA430C7FEA6C5CD6D152EADD
:100A6800033CD3D05DF8040B704700BF84461046A2
:100A780062468C461946634600E000BF01B5FFF7A1
:100A8800B7FF002848BF10F1000F01BD4DF808ED71
:100A9800FFF7F4FF0CBF012000205DF808FB00BF42
:100AA8004DF808EDFFF7EAFF34BF012000205DF89C
:100AB80008FB00BF4DF808EDFFF7E0FF94BF0120E9
:100AC80000205DF808FB00BF4DF808EDFFF7CEFFEA
:100AD80094BF012000205DF808FB00BF4DF808ED29
:100AE800FFF7C4FF34BF012000205DF808FB00BFFA
:100AF8004FEA410C7FEA6C5C02D150EA013C0AD112
:100B08004FEA430C7FEA6C5C02D152EA033C02D103
:100B18004FF0000070474FF0010070474FEA410264
:100B280012F5001215D211D56FF47873B3EB625237
:100B380012D94FEAC12343F0004343EA505311F05E
:100B4800004F23FA02F018BF404270474FF00000F0
:100B5800704750EA013005D111F0004008BF6FF02E
:100B6800004070474FF00000704700BF70B582B07A
:100B780006460D4614464FF4A06000F00FFC8DF8B1
:100B8800046001238DF807308DF805508DF8064074
:100B980001A800F00DFC02B070BD00BF70B584B0B4
:100BA80004460E461546B0F1804F07D1012108468C
:100BB80000F0CAFB4FF0804000F03CFC154B9C4213
:100BC80006D10121022000F0BFFB124800F032FCE0
:100BD800114B9C4206D10121042000F0B5FB0E48C0
:100BE80000F028FCB4F1804F06D00A4B9C4203D099
:100BF80003F580639C420BD1ADF80860013DADF868
:100C080004500023ADF8063001A9204600F012FD7B
:100C180004B070BD000400400008004070B50446F0
:100C28000D461646B0F1804F02D11C20FFF79EFFFB
:100C3800B4F1804F04D1324629461C20FFF796FFB5
:100C4800B4F1804F04D1324629461C20FFF78EFFAD
:100C5800B4F1804F06D0094B9C4203D003F5806362
:100C68009C420AD101214FF0804000F049FD012249
:100C780011464FF0804000F035FD70BD0004004083
:100C880008B501214FF0804000F03EFD60B1012120
:100C98004FF0804000F044FD00214FF0804000F00C
:100CA80013FD0122014B1A7008BD00BF0802002085
:100CB800F0B583B00121082000F038FB0121402065
:100CC80000F034FB2024ADF8044010268DF80760AE
:100CD80003258DF806500D4F01A9384600F0C2FDD6
:100CE8002146384600F00CFEADF804408DF8076048
:100CF8008DF80650064D01A9284600F0B3FD21469F
:100D0800284600F0FDFD03B0F0BD00BF000C014017
:100D18000018014010B582B0012144F2040000F02F
:100D280005FB4FF40073ADF8043018238DF8073035
:100D380003238DF80630094C01A9204600F092FDE6
:100D48004FF48063ADF8043004238DF807300DEBC1
:100D58000301204600F086FD02B010BD00080140E6
:100D680030B583B001210F4800F0E0FA0425ADF852
:100D7800045018238DF8073003238DF806300A4CE9
:100D88000DEB0501204600F06DFD0823ADF8043099
:100D98008DF807500DEB0501204600F063FD03B008
:100DA80030BD00BF040002000008014000B583B058
:100DB8000121104800F0BAFA4FF48063ADF804300E
:100DC80018238DF8073003238DF8063001A90A4847
:100DD80000F048FD4FF40063ADF8043004238DF8AB
:100DE80007300DEB0301054800F03CFD03B05DF84A
:100DF80004FB00BF0800040000080140000C01408B
:100E080030B585B004460D46184B984201D1FFF71E
:100E180081FF174B9C4201D1FFF7A2FF154B9C4263
:100E280001D1FFF7C3FF114B9C4207D0A3F57443D0
:100E38009C4203D003F580639C4214D100950023A3
:100E4800ADF80430ADF80630ADF80830ADF80C3028
:100E58000C23ADF80A306946204600F065FC0121F4
:100E6800204600F0C5FC05B030BD00BF0038014089
:100E7800004400400048004070B504460D46164640
:100E8800134B984202D12520FFF770FE114B9C426C
:100E980004D1324629462520FFF768FE0E4B9C42B6
:100EA80004D1324629462520FFF760FE084B9C42B4
:100EB80007D0A3F574439C4203D003F580639C429A
:100EC80005D1012240F22551014800F09FFC70BD78
:100ED80000380140004400400048004010B5044676
:100EE80000F0B0FC8021204600F0B4FC0028F9D0C6
:100EF80010BD00BF70B506460C46002504E030461C
:100F0800FFF7ECFF0134013521780029F7D1284695
:100F180070BD00BF38B540F225510E4800F09AFC6C
:100F2800B0B10D4B1B789BB901214FF0804000F008
:100F3800CBFB00214FF0804000F0E0FB074C256818
:100F4800044800F083FC064B58552368013323609E
:100F580038BD00BF0038014008020020040200200C
:100F68009802002010F0030F07D10B4BA3FB0023BE
:100F78005B09642202FB130353B9074BA3FB00234D
:100F8800DB094FF4C87202FB13031BB90120704739
:100F980001207047002070471F85EB5170B504464B
:100FA8000D4640F2B2738B60AE683046FFF7DAFF49
:100FB800024648B12E4B9C4212D9A4F1F174A4F513
:100FC80005440136AE60EFE72A4B9C4208D904F18C
:100FD8007E4404F5F61404F548640136AE60E3E790
:100FE80001232B7100231EE072B1234951F823001D
:100FF800224901FB00F18C4217D3214901FB00442F
:101008002979013129710DE01E4951F823001B4946
:1010180001FB00F18C4208D3194901FB00442979EE
:101028000131297101330B2BDED90123EB70164BEB
:101038009C4207D9A4F5A834A4F5C074EB78013311
:10104800EB70F4E70023AB70B4F5616F05D3A4F53A
:101058006164AB780133AB70F6E700236B703B2C0F
:1010680004D93C3C6B7801336B70F8E72C7070BD89
:10107800FF84E2017F33E10124350008805101003B
:1010880080AEFEFFF43400087F51010010B504461D
:1010980000F0D0F82146FFF781FF10BD08B5012008
:1010A80000F0D2F828B10748FFF7F0FF012000F060
:1010B800D5F8022000F0C8F810B1022000F0CEF8F0
:1010C80008BD00BFD802002008B56FF0040000F08A
:1010D800A1F9084B1B68084AA2FB0323C3F3475333
:1010E800064A1370C3EB431203EB8203DA00044B86
:1010F8001A8008BD1400002083DE1B43090200206B
:101108000A0200200C4B1B8800FB03F00B4B5860B5
:1011180000229A601A6842F001021A60074B1B68A5
:1011280003F00113012BF9D0044B1A6822F00102D5
:101138001A6000229A6070470A02002010E000E05E
:1011480000B583B00121082000F0F0F84FF4807357
:10115800ADF8043010238DF8073003238DF80630DE
:1011680001A9044800F07EFB0022034B1A6003B07B
:101178005DF804FB000C0140A081214280B5FFF717
:1011880097FDFFF7DDFFFFF79FFF1B4C4FF4E131A1
:101198002046FFF735FE012211462046FFF76CFE78
:1011A80048224FF47A714FF08040FFF7F7FC002295
:1011B80001214FF08040FFF731FD104B1B7853B1F0
:1011C8000F4D2B680F490024CC540B48FFF792FEB3
:1011D8002C600A4B1C700C4E002535600B4C012707
:1011E80027604FF4FA70FFF78DFF376025604FF4E2
:1011F800FA70FFF787FFE0E7003801400802002097
:101208000402002098020020940123429481214284
:10121800704700BFFEE700BFFEE700BFFEE700BF64
:10122800FEE700BF704700BF704700BF704700BFB0
:10123800704700BF034A938B9BB2108B43EA004070
:10124800704700BF00280040034B9B88184201D01C
:10125800012070470020704700280040034A938807
:10126800C04380B203409380704700BF002800400D
:1012780010B4294B5B6803F00C03042B05D0082B32
:1012880006D013BB254B036021E0244B03601EE00E
:10129800214A53685268C3F38343023312F4803FF0
:1012A80004D11F4A02FB03F3036010E01A4A526894
:1012B80012F4003F04D01A4A02FB03F3036006E06D
:1012C800164A02FB03F3036001E0144B0360124962
:1012D8004B68C3F30313134CE35CDAB20368D340DF
:1012E80043604A68C2F30222A25CD2B223FA02F235
:1012F80082604A68C2F3C222A25CD2B2D340C36001
:101308004A68C2F3813208498A5CD2B2B3FBF2F36D
:10131800036110BC704700BF0010024000127A0041
:1013280000093D00040000200000002021B1054B09
:101338009A69104398617047024A936923EA00004A
:10134800906170470010024021B1054BDA691043E3
:10135800D8617047024AD36923EA0000D061704718
:101368000010024021B1054BDA681043D86070477D
:10137800024AD36823EA0000D06070470010024098
:1013880021B1054B1A69104318617047024A136965
:1013980023EA0000106170470010024040F0BF606F
:1013A80040F40030014BD860704700BF00ED00E00A
:1013B800C378FBB1154BDB68DB43C3F30223C3F1EE
:1013C80004010F22DA40437803FA01F183781340CD
:1013D8000B431B010278DBB20D490A4482F8003343
:1013E8000378580903F01F03012202FA03F341F8B6
:1013F8002030704703785A0903F01F03012101FACE
:1014080003F32032024941F82230704700ED00E032
:1014180000E100E0042805D1054A136843F00403FD
:1014280013607047024A136823F00403136070477F
:1014380010E000E008B56F4B98420AD101214FF443
:101448000060FFF78FFF00214FF40060FFF78AFF6D
:1014580008BDB0F1804F08D101210846FFF790FF81
:1014680000210120FFF78CFF08BD634B984208D18B
:1014780001210220FFF784FF00210220FFF780FFEF
:1014880008BD5E4B984208D101210420FFF778FF80
:1014980000210420FFF774FF08BD594B984208D17A
:1014A80001210820FFF76CFF00210820FFF768FFE3
:1014B80008BD544B984208D101211020FFF760FF66
:1014C80000211020FFF75CFF08BD4F4B984208D160
:1014D80001212020FFF754FF00212020FFF750FFB3
:1014E80008BD4A4B98420AD101214FF40050FFF73A
:1014F80039FF00214FF40050FFF734FF08BD444B7B
:1015080098420AD101214FF40020FFF72BFF002158
:101518004FF40020FFF726FF08BD3E4B98420AD142
:1015280001214FF48010FFF71DFF00214FF48010B8
:10153800FFF718FF08BD384B98420AD101214FF434
:101548000010FFF70FFF00214FF40010FFF70AFF0C
:1015580008BD324B984208D101214020FFF710FF07
:1015680000214020FFF70CFF08BD2D4B984208D101
:1015780001218020FFF704FF00218020FFF700FFF2
:1015880008BD284B98420AD101214FF48070FFF71B
:10159800F7FE00214FF48070FFF7F2FE08BD224BE2
:1015A80098420AD101214FF48030FFF7DBFE002179
:1015B8004FF48030FFF7D6FE08BD1C4B98420AD185
:1015C80001214FF40030FFF7CDFE00214FF4003029
:1015D800FFF7C8FE08BD164B984209D101214FF408
:1015E8008020FFF7BFFE00214FF48020FFF7BAFEEE
:1015F80008BD00BF002C0140000400400008004066
:10160800000C00400010004000140040003401406D
:10161800004C0140005001400054014000180040B7
:10162800001C0040002000400040014000440140F0
:101638000048014003889BB2214A904212D002F52B
:10164800006290420ED0B0F1804F0BD0A2F59832D4
:10165800904207D002F58062904203D002F5806282
:10166800904203D123F070034A881343154A9042ED
:1016780008D002F58062904204D023F440739BB2F4
:10168800CA88134303808B8883850B8803850C4B9A
:1016980098420FD003F5006398420BD003F54063DE
:1016A800984207D003F58063984203D003F580631E
:1016B800984201D10B7A038601238382704700BFC9
:1016C800002C01400010004029B103889BB243F070
:1016D80001030380704703889BB223F001039BB288
:1016E8000380704722B183899BB219438181704777
:1016F8008389C94389B219408181704781847047C1
:10170800C94389B201827047028A83890B4011421A
:1017180002D01BB900207047002070470120704795
:10172800C94389B20182704730B587B004460D4677
:10173800038A9BB2CA8823F44053134303828389E4
:101748009BB28A88098968890A43024323F4B05303
:1017580023F00C031343A381A38A9BB2AA8923F421
:1017680040731343A38201A8FFF782FD1E4B9C42DE
:1017780001D1049A00E0039AA38913F4004F08D01A
:1017880002EB820202EB820229684900B2FBF1F106
:1017980007E002EB820202EB820229688900B2FBB1
:1017A800F1F1124BA3FB01235B091B011A09642009
:1017B80000FB1212A18911F4004F08D0D200323276
:1017C8000A49A1FB0212C2F342121A4307E01201AE
:1017D80032320649A1FB0212C2F343121A4392B2F3
:1017E800228107B030BD00BF003801401F85EB5192
:1017F80029B183899BB243F400538381704783895D
:101808009BB223F400539BB28381704710B4C1F399
:10181800421401F01F01012303FA01F19C4201D196
:101828000C3004E0022C01D1103000E014301AB161
:1018380003681943016003E0036823EA01010160BA
:1018480010BC7047C1F30801818070478088C0F3DD
:10185800080070470388194201D001207047002012
:10186800704700BFF0B4CB7803F00F02154613F0B1
:10187800100F01D08D7815430B78E3B1066800236B
:1018880016E001229A400C8832EA04040FD19C0029
:101898000F27A74026EA070605FA04F42643CC7862
:1018A800282C01D1426102E0482C00D102610133A9
:1018B800072BE6D906600B88FF2B1ED94668002344
:1018C80018E003F108040122A2400C8832EA04045B
:1018D8000FD19C000F27A74026EA070605FA04F453
:1018E8002643CC78282C00D14261CC78482C00D1F2
:1018F80002610133072BE4D94660F0BC704700BF92
:101908000161704782B00023019300932C4A136849
:1019180043F4803313602A4B1B6803F400330093AD
:10192800019B01330193009B1BB9019BB3F5A06F89
:10193800F1D1234B1B6813F4003F02D0012300931D
:1019480001E000230093009B012B36D11D4B1A6840
:1019580042F010021A601A6822F003021A601A682C
:1019680042F002021A60A3F580535A685A605A6816
:101978005A605A6842F480625A605A6822F47C12AB
:101988005A605A6842F4E8125A601A6842F0807243
:101998001A600B4B1B6813F0007FFAD0084B5A688B
:1019A80022F003025A605A6842F002025A60044B5D
:1019B8005B6803F00C03082BF9D102B0704700BF35
:1019C800001002400020024008B5FFF79BFF08BD49
:1019D80008B5104B1A6842F001021A6059680E4A9D
:1019E8000A405A601A6822F0847222F480321A601F
:1019F8001A6822F480221A605A6822F4FE025A6099
:101A08004FF41F029A60FFF7DFFF4FF00062034BAD
:101A18009A6008BD001002400000FFF800ED00E0E9
:101A2800002103E00B4B5B58435004310A480B4B31
:101A380042189A42F6D30A4A02E0002342F8043BCD
:101A4800084B9A42F9D3FFF7C3FF00F00FF8FFF7EE
:101A580095FB70470038000800000020E8010020CE
:101A6800E8010020E8020020FEE700000E4B70B5F8
:101A78001E460E4C0025E41AA410A54204D056F8C0
:101A8800253098470135F8E701F0A6FE084B094CC8
:101A98001E46E41AA4100025A54204D056F82530A5
:101AA80098470135F8E770BDF8370008F83700089F
:101AB800F8370008FC37000803460244934202D076
:101AC80003F8011BFAE770472DE9F04788B0149F27
:101AD800002B1E461299B8BF03F1004327F02007D8
:101AE800B6BF1E4600232D23462F1446109DDDF851
:101AF8004CA00B7003D0452F03D1013501E003231F
:101B080000E0022307AA049206AA03928DE828049B
:101B18002246334600F0B0FB472F804602D1119B86
:101B2800DB0728D5462F08EB050911D198F80030B6
:101B3800302B0AD10022002320463146FEF7A6FFAB
:101B480018B9C5F10105CAF80050DAF8003099440F
:101B58000022002320463146FEF798FF08B93022BC
:101B680002E0CDF81C9006E0079B994503D9591C63
:101B780007911A70F8E74046079B159AC8EB0303CC
:101B8800136008B0BDE8F087034673B50029B8BFF5
:101B9800494203F8022BB4BF2D222B220929427097
:101BA8001ADD0DF1070216460A2591FBF5F405FB2F
:101BB8001411092C01F1300102F8011D2146F4DC51
:101BC8003031541E02F8011CB4421A460AD214F8E5
:101BD800012B03F8012BF7E71A463024214402F8B9
:101BE800024B5970101A02B070BD00002DE9F04F79
:101BF80091B00C46DDF8688016461F46054601F090
:101C0800D3F8036818460993FEF718FB00230E93D0
:101C1800D8F800300A90073323F0070303F10802CD
:101C280094F81890D4F800B0C8F80020D3E900233D
:101C3800C4E91223D4F84CA0D4F848802AF0004311
:101C48000B934FF0FF32A74B40460B99FEF750FF1E
:101C5800A0B94FF0FF32A34B40460B99FEF72AFF7D
:101C680060B90022002340465146FEF719FF10B123
:101C78002D2384F843309C4B9C4A0AE04246534645
:101C880040465146FEF734FF002800F09281984BF9
:101C9800984AB9F1470F8CBF9046984603232361B1
:101CA8002BF0040323604FF0000A3DE0B9F1670F01
:101CB80000F08A81B9F1470F00F086812360019313
:101CC800636800210DF133020590029200934246A9
:101CD80053460691CDF81090CDF80CE02846FFF752
:101CE800F3FE09F0DF03472B804600F08481B9F149
:101CF800650F0D9900F28D8101394A4604F15000B3
:101D08000D91FFF741FF0E9A82468318012A23613D
:101D180000F37C812268D10700F178819DF8333087
:101D280013B12D2384F84330009733460FAA214678
:101D3800284600F09FF9013002D14FF0FF3096E1BC
:101D480023685A0501D4236965E0B9F1650F40F2AB
:101D5800D580D4E9120100220023FEF797FE78B35C
:101D68000123654A31462846B8470130E5D00E9B25
:101D78000D9A9A420BDB2368D80708D423689B077F
:101D880040F111814FF0000804F1190906E10A9B9E
:101D9800099A31462846B8470130CED04FF000089E
:101DA80004F11A090E9B013B9845E7DA01234A46DC
:101DB80031462846B8470130BFD008F10108F1E79D
:101DC8000D9B002B29DC01234B4A31462846B84796
:101DD8000130B2D00D9B23B90E9B13B92368D907E4
:101DE800CCD50A9B099A31462846B8470130A4D079
:101DF8004FF0000904F11A0A0D9B5B42994509DA74
:101E08000123524631462846B847013095D009F19A
:101E18000109F1E70E9B4246A7E00E9AA36D9A428C
:101E2800A8BF1A46002A914606DC4FF0000A29EAA4
:101E3800E97904F11A0B11E0134631464246284667
:101E4800B8470130F1D178E701235A463146284690
:101E5800B84701303FF471AF0AF1010AA36DC9EB2D
:101E680003029245F0DB08EB03090D9A0E9B9A4298
:101E78000FDB2368DA070CD40E9B0D9A9844C9EB44
:101E880008089B1A9845A8BF9846B8F1000F08DCC7
:101E98000FE00A9B099A31462846B8470130EBD132
:101EA8004BE743464A4631462846B84701303FF497
:101EB80044AF4FF0000928EAE87804F11A0A09E06B
:101EC8000123524631462846B84701303FF435AF22
:101ED80009F101090D9A0E9B9B1AC8EB030399455A
:101EE800EEDB4BE7FFFFEF7F54350008583500085D
:101EF8005C35000860350008643500080E9A012A30
:101F080001DCDB0738D50123424631462846B8476D
:101F180001303FF412AF0A9B099A31462846B84768
:101F280001303FF40AAFD4E9120100220023FEF782
:101F3800ADFD20B14FF0000804F11A090EE00E9B28
:101F480008F10102013B19E001234A4631462846BF
:101F5800B84701303FF4F1AE08F101080E9B013B90
:101F68009845F1DB534604F1500231462846B847FC
:101F780001307FF403AFE0E64246012331462846AC
:101F8800B8470130EED1D8E601234A463146284603
:101F9800B84701303FF4D1AE08F10108E3680F9A61
:101FA8009B1A9845F0DBE0680F9B9842B8BF18462B
:101FB8005DE062680EA8531C0DF1340E4BF480638B
:101FC8007FF474AE062201E012B90122626075E660
:101FD800002106910DF133018DE80C002360059076
:101FE8004246CDF81090CDF80CE0029153462846B1
:101FF800FFF76AFD80460D9BD81C02DB626893429E
:102008001DDDA9F102095FFA89F970E60133236140
:1020180084E6B9F1660F14D10029636807DD2161F0
:1020280013B92268D2071DD501330B4419E013B93F
:102038002268D00701D5023313E0012311E04FF0E5
:1020480067090D9B0E9A934205DB22682361D1072D
:1020580008D5013305E0002BD4BFC3F102030123E7
:10206800134423610D9B4FF0000AA36556E611B097
:10207800BDE8F08F2DE9F04791461F460A698B6845
:1020880006469342B8BF1346C9F8003091F843207A
:102098000C46DDF8208012B10133C9F800302368FE
:1020A800990642BFD9F800300233C9F800302568D4
:1020B80015F0060510D104F1190A07E0012352466C
:1020C80039463046C04701301AD00135E368D9F89F
:1020D80000209B1A9D42F1DB94F8433022680033BC
:1020E80018BF012392060FD5E118302081F843006C
:1020F8005A1C94F845102244023382F8431003E036
:102108004FF0FF30BDE8F08704F14302394630460E
:10211800C0470130F4D02268D9F80050E36802F0D3
:102128000602042A08BF5D1B2269A3680CBF25EAC2
:10213800E57500259342C4BF9B1AED184FF00009BE
:102148001A344D4509D00123224639463046C04746
:102158000130D5D009F10109F3E70020BDE8F08787
:102168002DE9F74F03690C6980469C427FDC013CEE
:1021780001F114074FEA840E00F1140606EB0E0372
:1021880057F82450019356F824300135B3FBF5F580
:1021980007EB0E09C5B34FF0000A3846B446D346DC
:1021A80050F8043B9AB205FB02A21B0C4FEA124AF4
:1021B80005FB03A392B2C2EB0B0BBCF800204FEA5D
:1021C800134A5A441FFA83FBDCF800308145CBEBF5
:1021D800134303EB224392B242EA03424FEA234BF2
:1021E8004CF8042BDCD256F80E306BB9019B043B3B
:1021F8009E421A4602D3C8F8104005E01268043B14
:10220800002AF8D1013CF3E7404600F0FAFF002825
:102218002BDB304601354FF0000E57F8042B0368CE
:1022280091B2C1EB0E0E120C99B27144C2EB13437A
:1022380003EB214389B24FEA234EB94541EA0343F0
:1022480040F8043BE9D256F8242006EB840362B92F
:10225800043B9E421A4602D3C8F8104005E01268B3
:10226800043B002AF8D1013CF3E7284600E00020AF
:1022780003B0BDE8F08F00002DE9F04F456A95B036
:102288008246219CCDE9022345B9102000F09AFD31
:10229800CAF82400456085600560C560DAF8243016
:1022A800196859B15A68012393404A608B605046B7
:1022B80000F0D0FDDAF8243000221A60039BA04A0F
:1022C800002BBDBF01232360039B0023BCBF23F069
:1022D80000430393DDF80C80A8BF236028F0004377
:1022E8001B0D1B0593421DD142F20F73209A1360F8
:1022F800029B43B9934A944BC8F31300002814BFB8
:102308001846104600E09048229B002B00F04685B6
:10231800C37813B100F1080300E0C31C229A1360CC
:1023280000F03CBDDDE90245002200232046294695
:10233800FEF7ACFB074658B1209A01231360229B95
:10234800002B00F01E8581481860013800F026BD7A
:1023580012AB019313AB009322462B46504600F074
:10236800CBFFC8F30A56049056B1C5F3130343F0E4
:102378007F51204641F44011A6F2FF3611971DE027
:10238800139B129E1E4406F23243202B0ADD029A4A
:1023980006F21240C3F1400322FA00F008FA03F3F0
:1023A800184304E0C3F12000029B03FA00F0FEF793
:1023B8008FF80123A1F1F871013E11930022644BBB
:1023C800FDF748FF58A3D3E90023FEF7F7F858A311
:1023D800D3E90023FDF740FF044630460D46FEF7DB
:1023E80087F855A3D3E90023FEF7E8F802460B4621
:1023F80020462946FDF730FF04460D46FEF78EFBC2
:1024080000228346002320462946FEF749FB58B19F
:102418005846FEF76DF802460B4620462946FEF759
:1024280035FB08B90BF1FF3BBBF1160F0DD8DDE901
:102438000223484901EBCB01D1E90001FEF74EFB2D
:1024480030B10BF1FF3B002300E00123109300E0C3
:102458001090129B9E1B731E079343BFC3F1000885
:10246800002307934FF00008BBF1000F06DB079B22
:10247800CDF82CB05B440793002705E00023CBEB95
:102488000808CBF100070B931E9B092B28D8052BB6
:10249800C4BF043B1E931E9BC8BF0025A3F10203C3
:1024A800D8BF0125032B20D8DFE803F0060E02046D
:1024B800012302E0012308E000230A931F9B002B5D
:1024C8001DDD9946059321E000230A931F9B0BEB22
:1024D800030909F10103012B0593B8BF012315E096
:1024E800012500231E930A9501E001230A934FF06A
:1024F800FF390022CDF8149012231F9206E04FF006
:1025080001094B46CDF81490CDF87C90DAF82440B8
:1025180000226260042101F114029A421CD8626808
:10252800490001326260F6E761436F63A787D23FD3
:10253800B3C8608B288AC63FFB799F501344D33FAA
:102548000000F07F663500086F3500086535000823
:102558000000F83FD83500086168504600F045FC97
:10256800DAF8243020601B680693059B0E2B00F2D6
:102578005B81002D00F05881DDE90234BBF1000FCA
:10258800CDE90E3430DD9F4A0BF00F034FEA2B15CF
:1025980002EBC303E80618CBCDE908340CD5DDE916
:1025A8000E01994B05F00F05D3E90823FEF730F922
:1025B8000324CDE9020100E00224934E6DB1E9073E
:1025C80008D5DDE90801D6E90023FDF7F7FFCDE9D5
:1025D800080101346D100836F0E7DDE90823DDE96C
:1025E8000201FEF715F920E0CBF1000505B3DDE99E
:1025F8000E01844B05F00F0203EBC203D3E900235D
:10260800FDF7DCFFCDE902017F4E2D1100230224E6
:1026180055B1EA0705D5D6E90023FDF7CFFF013408
:1026280001236D100836F3E71BB1CDE9020100E084
:102638000224109BE3B1DDE902560022734B2846C1
:102648003146FEF72DFA98B1059B8BB1B9F1000F11
:1026580040F3E6800BF1FF330893314600226C4BC0
:102668002846FDF7ABFF0134CDE902014E4602E0F2
:10267800059ECDF820B02046FDF73AFFDDE902239C
:10268800FDF79CFF634B0022FDF7E6FDA1F15073B7
:1026980004460C931D46D6B9DDE9020100225E4BC3
:1026A800FDF7D8FD22460C9BCDE90201FEF716FA8C
:1026B800002840F03F820C99224601F10043DDE9F1
:1026C8000201FEF7EDF9002840F02B82A8E00A9AF3
:1026D8004C4B711E002A49D003EBC103D3E90023F8
:1026E80000204E49FEF794F822462B46FDF7B2FD2E
:1026F800CDE90C01069CDDE90201FEF70FFA05465B
:10270800FDF7F6FE02460B46DDE90201FDF7A2FDE4
:10271800DDE90C23303504F8015BCDE90201FEF751
:10272800BFF9002840F01D83DDE902230020374966
:10273800FDF790FDDDE90C23FEF7B2F9002840F023
:10274800D180069BE31AB3426ADADDE90C01002264
:102758002F4BFDF733FF0022CDE90C01DDE9020123
:102768002B4BFDF72BFFCDE90201C4E703EBC101B9
:102778002246D1E900012B46FDF720FF069BCDE953
:102788000C011D469C19DDE90201FEF7C7F9064652
:10279800FDF7AEFE02460B46DDE90201FDF75AFDE4
:1027A800303605F8016BAC42CDE902014FF000026A
:1027B80022D11A4BDDE90C01FDF74EFD02460B460E
:1027C800DDE90201FEF78AF9002840F08B80DDE997
:1027D8000C2300201149FDF73DFD02460B46DDE9BB
:1027E8000201FEF75DF9D8B114F8013C621E302BE6
:1027F80040F0B7821446F7E7054BFDF7DFFECDE959
:102808000201C0E7D8350008A03600080000F03FF4
:102818000000244000001C40000014400000E03F7D
:10282800DDE90E34CDE90234139B002B7CDBBBF1D0
:102838000E0F79DCAB4B03EBCB03D3E900671F9B8F
:10284800002B14DA059B002B11DC40F06C81002270
:10285800A54B30463946FDF7B1FEDDE90223FEF708
:1028680033F9059D2E46002840F05F8165E1069CFE
:10287800DDE9028932463B4640464946FDF7C8FF36
:10288800FEF74CF90546FDF733FE32463B46FDF7A9
:1028980095FE0B46024649464046FDF7DBFC05F12E
:1028A800300E069B04F801EBC3EB040E059B734541
:1028B8002DD102460B46FDF7CFFC804689460246DD
:1028C8000B4630463946FEF7EBF878B942464B4698
:1028D80030463946FEF7DAF8002800F04482EB0764
:1028E80004D440E2DDF820B000E01C4614F8012CC6
:1028F800631E392A07D1069A9A42F6D106993022E0
:102908000BF1010B0A701A7801321A702BE20022BF
:10291800764BFDF753FE0022002380468946FEF7DA
:10292800B5F80028A6D01EE20A9A002A2BD01E9AD3
:10293800012A0ADC119A12B103F2334302E0129B16
:10294800C3F136033D46444613E0059B5D1EAF4286
:10295800BFBF0B9BEA1B9B180B93059BB6BF2F466B
:102968007D1B0025002BA7BF4446059BC3EB08042D
:102978000023079A01211A4450469844079200F010
:1029880008FB064602E03D4644460A9E5CB1079BAA
:10299800002B08DDA342A8BF2346079AC3EB08080B
:1029A800E41AD31A0793002F1DDD0A9BABB18DB132
:1029B80031462A46504600F085FB049A01460646F1
:1029C800504600F0EFFA04990890504600F042FA99
:1029D800089B04937A1B06D000E03A4604995046B7
:1029E80000F070FB04900121504600F0D2FA0B9BD6
:1029F80005465BB31A460146504600F063FB1E9B32
:102A08000546012B18DC029B83B9039BC3F3130310
:102A180073B9039B23F000473F0D3F054FB1079B58
:102A280008F1010801330793012702E0002700E0BD
:102A3800029F0B9B73B100E000272B6905EB830312
:102A4800186900F059FAC0F1200004E01E9B012B20
:102A5800D9DD0B9F0120079B184410F01F0008D0F8
:102A6800C0F12003042B02DDC0F11C0002E006D0F7
:102A780018461C30079B8044034404440793B8F16C
:102A8800000F05DD42460499504600F069FB0490AA
:102A9800079B002B05DD29461A46504600F060FBCF
:102AA8000546109B23B32946049800F0AAFB00288A
:102AB8001EDA00230A220499504600F0E2F90A9B24
:102AC8000BF1FF3B0490002B00F05F81314600239F
:102AD8000A22504600F0D5F9B9F1000F06463FDC4E
:102AE8003BE000BFD8350008000014400000244037
:102AF800059B002B2BDC1E9B022B28DDDDF8149098
:102B0800B9F1000F11D129464B460522504600F075
:102B1800B8F901460546049800F073FB00280CDC60
:102B280003E0354600E000252E461F9B069C6FEA11
:102B3800030B09E03546DDF820B0069B069A5C1CBD
:102B4800312313700BF1010B05960026F7E00A9B61
:102B5800DDF8149023B9069CB2E01E9B022BCFDC53
:102B6800002C05DD31462246504600F0F9FA0646AB
:102B78009FB17168504600F038F90446326906F191
:102B88000C01023292000C3000F024F90122214697
:102B9800504600F0E5FA059000E00596029B069F76
:102BA80003F00103079329460498FFF7D9FA314641
:102BB800044600F13008049800F023FB059A0290BF
:102BC8002946504600F039FBC36802463BB9014626
:102BD8000A90049800F015FB0A9A034600E00123C6
:102BE800114650460A9300F035F90A9B53B91E9ACC
:102BF80042B9079A32B9B8F1390F2AD0029B002B93
:102C08001CDC1DE0029A002A04DB1BD11E9ACAB9FB
:102C1800079ABAB9002B13DD01220499504600F037
:102C28009FFA2946049000F0ECFA002803DC07D14B
:102C380018F0010F04D0B8F1390F0AD004F13108A7
:102C48007C1C0CE0002B07F101040BDDB8F1390FF7
:102C580003D139233B70013756E008F1010887F8A2
:102C680000806CE0069B2746E31A4B4504F8018C6C
:102C78003BD000230A220499504600F002F9059B34
:102C880004909E424FF00A024FF00003314650462E
:102C980004D100F0F6F80646059084E700F0F1F854
:102CA800002306460A220599504600F0EAF80590E6
:102CB80079E700230A220499504600F0E2F80490CC
:102CC80029460498FFF74CFA069B00F1300804F8EF
:102CD800018BE31A4B45ECDB069B0596B9F1010F16
:102CE800ACBF4B4401331F460026012204995046CD
:102CF80000F036FA2946049000F083FA002803DC35
:102D080015D118F0010F12D03C4614F8013C621E90
:102D1800392B09D1069B934204D10BF1010B3123C6
:102D2800069A02E01446F0E70133137007E03C46C8
:102D380014F8013C621E302B01D11446F8E72946ED
:102D4800504600F087F8059B6BB12EB19E4203D028
:102D58003146504600F07EF80599504600F07AF862
:102D680001E0DDF820B00499504600F073F8002324
:102D7800209A23700BF101031360229B1BB11C6086
:102D880001E008480AE0069808E0B9F1000F3FF7AB
:102D9800E2AE1E9B022B7FF7DEAEB1E615B0BDE8B2
:102DA800F08F00BF64350008044B1B68186A044B99
:102DB800002808BF1846F030704700BF7800002090
:102DC8007C000020024B0146186800F0F1BA00BFF1
:102DD8007800002010B5431E0A44914204D011F82F
:102DE800014B03F8014FF8E710BD70B5456A04467A
:102DF8000E463DB91020FFF7E5FF6062456085602B
:102E08000560C560656AEB6843B1636ADB6853F8BF
:102E1800260078B1026843F8262017E02122042111
:102E2800204600F0B7FA636AE860DB68002BECD153
:102E3800002070BD012101FA06F56A1D92002046A6
:102E480000F0A8FA0028F3D04660856000230361EB
:102E5800C36070BD70B5446A06460D463CB9102083
:102E6800FFF7B0FF7062446084600460C4603DB1E5
:102E7800736A6A68DB6853F82210296043F82250A5
:102E880070BD2DE9F04106460C460D691F4601F15B
:102E9800140E0023DEF80000013381B202FB017139
:102EA800000C0F0C02FB007089B201EB00419D423F
:102EB8004FEA10474EF8041BECDCD7B1A3689D42DB
:102EC80012DB616830460131FFF78FFF80462269C7
:102ED80004F10C01023292000C30FFF77BFF21460F
:102EE8003046FFF7B7FF444604EB850301355F61C1
:102EF80025612046BDE8F081030C1B0413B90004CA
:102F0800102300E0002310F07F4F04BF00020833B5
:102F180010F0704F04BF0001043310F0404F04BF9D
:102F280080000233002803DB420003D5581C704799
:102F38001846704720207047036813F007020BD02B
:102F4800D90722D49A074BBF5B089B08036003602C
:102F58004CBF01200220704799B209B91B0C1022FE
:102F680013F0FF0F04BF1B0A0832190704BF1B091F
:102F78000432990704BF9B080232D90702D45B08C0
:102F880005D00132036010467047002070472020AA
:102F9800704710B50C460121FFF727FF0122446155
:102FA800026110BD2DE9F74F14460A692369884666
:102FB8009A42BEBF0B46A0461C46D8F81070D4F8FB
:102FC8001090D8F80830D8F8041007EB09069E428C
:102FD800C8BF0131FFF709FF00F114052B4605EBC7
:102FE800860C0022634502D243F8042BFAE704F169
:102FF800140208F1140102EB890301EB870700931F
:10300800009B0192934257D9B2F800B0BBF1000F70
:1030180023D08946AE464FF0000859F8044BBEF855
:1030280000A0A3B20BFB03A34FEA144ADEF800404A
:1030380043444FEA14480BFB0A84F24604EB13445A
:103048009BB243EA04434F454FEA14484AF8043B0D
:1030580001D9D646E1E7CEF80480019B0432B3F8E3
:1030680002A0BAF1000F21D02C4689462B684FF0F8
:103078000008B9F800E0B4F802B09BB20AFB0EBE33
:10308800A346F04443EA08434BF8043B59F8043B91
:10309800B4F804E01B0C0AFB03E34F4503EB1843A9
:1030A8004FEA134801D95C46E3E763600435A7E7B4
:1030B8005CF8043D13B9013E002EF9DC066103B04B
:1030C800BDE8F08F2DE9F843154612F003020646D5
:1030D8000F4607D0214C013A002354F82220FFF76D
:1030E800D0FE0746AD1036D0746A3CB91020FFF701
:1030F80069FE7062446084600460C460D6F824800D
:10310800D8F808404CB940F271213046FFF741FF2A
:1031180004460023C8F8080003604FF00008EB07D6
:103128000AD5394622463046FFF73CFF81463946E4
:103138003046FFF78FFE4F466D100CD0206808B15F
:103148000446ECE7224621463046FFF72BFF206075
:10315800C0F80080F4E73846BDE8F883C8360008B0
:103168002DE9F0470C460746914626694FEA621A50
:1031780056444968A368751CAB4202DA01315B000A
:10318800FAE73846FFF731FE002380461A4600F179
:103198001401534503DA41F823200133F9E72AEAF9
:1031A800EA73206901EB830319F01F0904F1140184
:1031B80001EB800E14D0C9F1200C002208689A4651
:1031C80000FA09F0024343F8042B51F8042B8E450A
:1031D80022FA0CF2F2D8CAF8042042B1B51C06E073
:1031E800043B51F8042B8E4543F8042FF9D8013DD0
:1031F8003846C8F810502146FFF72CFE4046BDE877
:10320800F08703690A6910B59B1A11D1920014302E
:10321800143183180A4453F8044D52F8041D8C42A3
:1032280002D007D3012010BD9842F4D3002010BD6E
:10323800184610BD4FF0FF3010BD2DE9F8430C467D
:103248000746114620461546FFF7DBFF061E08D144
:1032580031463846FFF7C9FD012303614661BDE8E1
:10326800F883BCBF23462C4638466168BABF1D4662
:1032780001260026FFF7B9FD2B69C660266905F10E
:10328800140904F1140101EB860709EB830800F126
:1032980014054FF0000C51F8042B59F8044B93B265
:1032A8009C44A3B2240CC3EB0C03C4EB124202EB04
:1032B80023429BB24FEA224CC84543EA02428E465B
:1032C80045F8042BE7D8BE450ED25EF8041B8AB237
:1032D8006244131403EB114392B242EA03424FEAE9
:1032E800234C45F8042BEEE755F8043D0BB9013E95
:1032F800FAE70661BDE8F8832DE9F3411C46012190
:103308009046089E099DFFF770FDC4F31302C4F3AD
:103318000A5407460CB142F480120192B8F1000F2A
:1033280019D002A840F8088DFFF706FE009B48B1A7
:10333800019AC0F1200102FA01F10B43C2407B61FE
:10334800019200E07B61019B002B14BF0221012147
:10335800BB61396107E001A8FFF7EEFD019B012180
:103368007B613961203034B1A4F2334404443460C1
:10337800C0F1350009E0A0F2324007EB810330606C
:103388001869FFF7B9FDC0EB41102860384602B054
:10339800BDE8F08138B502FB01F4214600F008F8D9
:1033A800054618B122460021FEF786FB284638BD9F
:1033B80070B5CD1C25F0030508350C2D38BF0C253C
:1033C800002D064601DBA94202D90C23336046E0F2
:1033D80000F06EF8234B1C681A462146A1B10B6811
:1033E8005B1B0ED40B2B03D90B60CC18CD501EE001
:1033F8008C420BBF63684B681360636018BF0C4650
:1034080015E00C464968E9E7174C23681BB93046B4
:1034180000F02CF820602946304600F027F8431CBD
:1034280018D0C41C24F00304A0420DD125603046F6
:1034380000F03FF804F10B00231D20F00700C31A29
:103448000ED05A42E25070BD211A304600F00EF8F4
:103458000130EBD10C233360304600F02AF800200D
:1034680070BD00BF100200200C02002038B5064CC9
:10347800002305460846236000F02AF8431C02D1C1
:10348800236803B12B6038BDE402002082B001B983
:1034980001A93AB143B113780B601278101C18BF18
:1034A800012003E0104601E06FF0010002B0704710
:1034B8007047704749B1FF2A85BF8A2303600A70A5
:1034C8004FF0FF3098BF0120704708467047000052
:1034D800044A05491368002B08BF0B4618441060BE
:1034E8001846704714020020E80200201F00000060
:1034F8001C0000001F0000001E0000001F0000004C
:103508001E0000001F0000001F0000001E00000039
:103518001F0000001E0000001F0000001F00000028
:103528001D0000001F0000001E0000001F0000001A
:103538001E0000001F0000001F0000001E00000009
:103548001F0000001E0000001F000000494E46003A
:10355800696E66004E414E006E616E003000496E25
:1035680066696E697479004E614E000000000000C3
:103578000000000000000000000000000000000043
:103588000000000000000000000000000000000033
:103598000000000000000000000000000000000023
:1035A8000000000000000000000000000000000013
:1035B8000000000000000000000000000000000003
:1035C80000000000000000000000000000000000F3
:1035D800000000000000F03F000000000000244050
:1035E80000000000000059400000000000408F402B
:1035F800000000000088C34000000000006AF84096
:103608000000000080842E4100000000D0126341B9
:103618000000000084D797410000000065CDCD412F
:10362800000000205FA00242000000E87648374210
:10363800000000A2941A6D42000040E59C30A242AE
:103648000000901EC4BCD64200003426F56B0C4323
:103658000080E03779C3414300A0D88557347643CA
:1036680000C84E676DC1AB43003D9160E458E1432B
:10367800408CB5781DAF154450EFE2D6E41A4B44A0
:1036880092D54D06CFF08044F64AE1C7022DB544E5
:10369800B49DD9794378EA440080E03779C341433F
:1036A800176E05B5B5B89346F5F93FE9034F384DA0
:1036B800321D30F94877825A3CBF737FDD4F15754C
:1036C80005000000190000007D0000004300504F75
:1036D800534958002E0000202020202020202020A0
:1036E80028282828282020202020202020202020AA
:1036F80020202020202020881010101010101010DA
:10370800101010101010100404040404040404041D
:1037180004101010101010104141414141410101A5
:103728000101010101010101010101010101010181
:10373800010110101010101042424242424202028F
:103748000202020202020202020202020202020251
:1037580002021010101020000000000000000000FD
:103768000000000000000000000000000000000051
:103778000000000000000000000000000000000041
:103788000000000000000000000000000000000031
:103798000000000000000000000000000000000021
:1037A8000000000000000000000000000000000011
:1037B8000000000000000000000000000000000001
:1037C80000000000000000000000000000000000F1
:1037D8000000000000000000F8B500BFF8BC08BCFD
:1037E8009E467047F8B500BFF8BC08BC9E467047B7
:0437F8000D020008B6
:0437FC00E9010008D7
:103800000204060800000000010203040102030490
:103810000607080900A24A040000000074350008E9
:1038200094350008B43500080000000000000000D6
:103830000000000000000000000000000000000088
:103840000000000000000000000000000000000078
:103850000000000000000000000000000000000068
:103860000000000000000000000000000000000058
:1038700000000000000000001800002043000000CD
:103880000000000000000000000000000000000038
:1038900000000000000000000000000043000000E5
:1038A0000000000000000000000000000000000018
:1038B00000000000000000000000000043000000C5
:1038C00000000000000000000000000000000000F8
:1038D00000000000000000000000000043000000A5
:1038E00000000000000000000000000000000000D8
:1038F0000000000000000000000000004300000085
:1039000000000000000000000000000000000000B7
:103910000000000000000000000000004300000064
:103920000000000000000000000000000000000097
:103930000000000000000000000000004300000044
:103940000000000000000000000000000000000077
:10395000000000000000000000000000BD3400086E
:103960009534000800000000DE360008DC36000850
:10397000DD360008DD360008DD360008DD360008DB
:10398000DD360008DD360008DD360008DD360008CB
:10399000DD360008FFFFFFFFFFFFFFFFFFFFFFFF18
:1039A000FFFF0000010041534349490000000000AF
:1039B0000000000000000000000000000000000007
:1039C000000000000000415343494900000000008E
:1039D00000000000000000000000000000000000E7
:0839E0000000000000000000DF
:0400000508001A29AC
:00000001FF
